S01900005350495F546573744170705F536C6176652E73726563A5
S11300000C942A000C943C000C943C000C943C008E
S11300100C943C000C943C000C943C000C943C006C
S11300200C943C000C943C000C943B010C943C005C
S11300300C943C000C943C000C943C000C943C004C
S11300400C943C000C943C000C943C000C943C003C
S11300500C943C0011241FBECFE5D8E0DEBFCDBF19
S113006020E0A0E6B0E001C01D92A736B207E1F798
S11300700E943E000C94B3010C940000CF93DF93D4
S11300801F92CDB7DEB781E00E94CB000E948501AC
S11300900E94190161E082E00E94580081E4898392
S11300A0CE0101960E940E0189810E94AD01F8CF14
S11300B08130F9F030F08230A1F1833009F449C085
S11300C060C0613091F018F0623039F05CC01ABA47
S11300D080B7846080BF80E0089580B78B7F80BF45
S11300E01ABA8FEF8BBB80E008958FEF8ABB80E054
S11300F00895613091F018F0623039F046C017BAB3
S113010080B7846080BF80E0089580B78B7F80BF14
S113011017BA8FEF88BB80E008958FEF87BB80E02C
S11301200895613091F018F0623039F030C014BA9B
S113013080B7846080BF80E0089580B78B7F80BFE4
S113014014BA8FEF85BB80E008958FEF84BB80E005
S11301500895613091F018F0623039F01AC011BA84
S113016080B7846080BF80E0089580B78B7F80BFB4
S113017011BA8FEF82BB80E008958FEF81BB80E0DE
S1130180089581E1089581E1089581E1089581E16F
S1130190089581E10895811120C08DB182608DB9E7
S11301A08EB18E7F8EB98DB180618DB98DB18F7D09
S11301B08DB98DB180648DB987B3806887BB87B3EF
S11301C0806287BB87B3806187BB87B38F7B87BB24
S11301D088B3806188BB80E008958130E9F48DB1F3
S11301E082608DB98EB18E7F8EB98DB18F7E8DB9BF
S11301F08DB18F7D8DB98DB180648DB987B38F77C3
S113020087BB87B38F7D87BB87B38F7E87BB87B35D
S1130210806487BB80E0089581E90895009739F0F0
S1130220779BFECF2FB1FC01208380E0089583E902
S1130230089583B78F7B83BF83B7886083BF8FB7ED
S113024080688FBF89B7826089BF03B606FC0BC084
S113025003B603FE0AC00FB607FE09C009B601FCC7
S113026008C081E4089581E4089581E4089581E457
S1130270089580E008951F920F920FB60F921124F3
S11302802F933F934F935F936F937F938F939F939A
S1130290AF93BF93EF93FF938091630090916400B9
S11302A001969093640080936300209163003091E1
S11302B06400809165009091660028173907A1F4C5
S11302C08091600090916100892B71F0109264001C
S11302D01092630089B78D7F89BF10926200E0910C
S11302E06000F09161000995FF91EF91BF91AF918A
S11302F09F918F917F916F915F914F913F912F913A
S11303000F900FBE0F901F9018958AB180618AB923
S1130310549B02C080E001C081E89AB198609AB908
S1130320539B81E890B5906890BD579B81E890B548
S11303309F7B90BD569981E890B590BD90B5977F0D
S113034090BD90B5966090BD90B59F7790BD57993C
S113035081E810BC93E399B908955D9BFECF8CB9F5
S10D03608CB182E80895F894FFCFF1
S9030000FC
